:020000040000FA
:1000000000800220150400001D0400001F040000F1
:10001000210400002304000025040000000000006B
:10002000FFFFFFFF000000000000000027040000A9
:1000300029040000000000002B0400002D04000033
:100040002F04000033040000370400003B040000CC
:100050003F04000043040000470400004B0400007C
:100060004F04000053040000570400005B0400002C
:100070004540000063040000670400006B040000BA
:100080006F04000073040000770400007B0400008C
:100090007F04000083040000870400008B0400003C
:1000A0008F04000093040000E93000009B0400006E
:1000B0009F040000A3040000A7040000AB0400009C
:1000C000AF040000B3040000B7040000BB0400004C
:1000D000BF040000C3040000C7040000CB040000FC
:1000E000CF040000D3040000D7040000DB040000AC
:1000F000DF040000E3040000E7040000EB0400005C
:10010000EF040000F3040000F7040000FB0400000B
:10011000FF040000593C0000070500000B0500002B
:100120000F050000000000000000000000000000BB
:1001300000000000000000000000000000000000BF
:1001400000000000000000000000000000000000AF
:10015000000000000000000000000000000000009F
:10016000000000000000000000000000000000008F
:10040000DFF80CD000F034FB00480047995E000094
:10041000008002203F4880473F480047FEE7FEE754
:10042000FEE7FEE7FEE7FEE7FEE7FEE7FEE73B4806
:1004300000473B4800473B4800473B4800473B4894
:1004400000473B4800473B4800473B4800473B4884
:1004500000473B4800473B4800473B4800473B4874
:1004600000473B4800473B4800473B4800473B4864
:1004700000473B4800473B4800473B4800473B4854
:1004800000473B4800473B4800473B4800473B4844
:1004900000473B4800473B4800473B4800473B4834
:1004A00000473B4800473B4800473B4800473B4824
:1004B00000473B4800473B4800473B4800473B4814
:1004C00000473B4800473B4800473B4800473B4804
:1004D00000473B4800473B4800473B4800473B48F4
:1004E00000473B4800473B4800473B4800473B48E4
:1004F00000473B4800473B4800473B4800473B48D4
:1005000000473B4800473B4800473B4800473B48C3
:100510000047FEE7ED46000001040000130500005F
:10052000F922000099300000C1300000ED3C0000CD
:10053000193D0000453D0000713D0000254B0000C5
:1005400013050000452200004F22000013050000A3
:1005500063220000C12B0000252C0000892C000024
:10056000ED2C0000512D0000B52D0000192E0000CB
:10057000412E0000130500001305000013050000C4
:10058000A52300001305000013050000130500005B
:100590001305000013050000130500009D3D000039
:1005A000C93D0000F53D0000213E00005922000039
:1005B0006D2200001305000013050000992E0000B5
:1005C000FD2E000095460000111400006914000083
:1005D000C1140000191500001305000013050000E8
:1005E000A52B0000130500001305000013050000F3
:1005F000130500001305000013050000130500009B
:100600002DE9F05F0546002092469B468846064647
:10061000814640241BE0284641464746224600F0DA
:1006200076F853465A46C01A914110D311461846DF
:10063000224600F05DF82D1A67EB01084F4622466E
:100640000120002100F054F817EB00094E41201E54
:10065000A4F10104DFDC484631462A464346BDE8A2
:10066000F09F40EA01039B0703D009E008C9121F6D
:1006700008C0042AFAD203E011F8013B00F8013B5C
:10068000521EF9D27047421C10F8011B0029FBD101
:10069000801A704730B5041E71F1000404DB4FF07E
:1006A0000044404264EB0101141E73F1000405DBB9
:1006B0001C464FF00043524263EB0403994208BFCB
:1006C000904230BD30B50B46014600202022012467
:1006D00009E021FA02F59D4205D303FA02F5491B10
:1006E00004FA02F52844151EA2F10102F1DC30BD26
:1006F000202A04DB203A00FA02F1002070479140E2
:10070000C2F1200320FA03F3194390407047202AD6
:1007100004DB203A21FA02F00021704721FA02F3AB
:10072000D040C2F1200291400843194670472DE99C
:10073000FE4F804681EA0300C00F0C46009021F076
:10074000004123F00045B8EB0200A94105D2404624
:10075000214690461C460B46024623F000401043BB
:1007600047D0270DC7F30A00C3F30A510290401A7D
:10077000019040286BDAC3F3130040F4801B00980B
:10078000924620B10023D2EB030A63EB0B0B0198D6
:100790005946C0F140025046FFF7AAFF06460D46F3
:1007A00050465946019A00F075F910EB0800614176
:1007B000002487EA115284EAE7731A4340D0009A72
:1007C00062B3019A012A4FEA075215DC001B61EB64
:1007D00002014FF0004202EA0752CDE90042001C3C
:1007E00041F5801132462B4600F075F903B0BDE8A3
:1007F000F08F40462146F9E7001B61EB0201001C27
:1008000041F5801300185B412018A2F5001747EB53
:10081000030140EAD570B6196D4111E06D084FEA49
:10082000360645EAC0754FEA0752001B61EB02012C
:10083000001C41F5801149084FEA30000019514170
:1008400032462B4603B0BDE8F04F00F035B90098B2
:10085000012240000023D0EB020263EBE07300981A
:1008600021464FEAE074B8EB000061EB0401E9E7D0
:1008700083F000435BE781F0004158E72DE9FE4F2C
:1008800081EA030404F0004421F0004100944FF099
:10089000000B23F0004350EA01045ED052EA030447
:1008A0005BD0C3F30A54C1F30A552C44A4F2F334C9
:1008B0000194A0FB0254C1F3130141F48011C3F36E
:1008C000130343F4801301FB024400FB034E840A2C
:1008D000970A44EA815447EA8357A4FB07680295C4
:1008E0008D0A05FB07854FEA932C04FB0C54270562
:1008F000029D4FEA065847EA1637B5EB08056EEB3E
:10090000070C870E920E47EA811742EA8312A7FB73
:100910000201B6EB0B0164EB00042B0D43EA0C3330
:100920005E1844EB1C50DA465146E7FB0201C5F362
:1009300013044FEA0B3343EA14534FEA0432019C89
:1009400043EA0603A4F10C040294009CCDE900B430
:1009500000F0C1F803B0BDE8F08F00200146F9E7D0
:100960002DE9F04D81EA030404F0004B21F000452D
:1009700014464FF0000A23F0004150EA050220D04F
:1009800054EA01021DD0C5F30A570246C5F313030A
:10099000C1F31300C1F30A5640F4801543F48013E9
:1009A000A7EB0608101BD64608F2FD3873EB0500CE
:1009B00002D308F1010801E092185B41B8F1000F81
:1009C00003DA00200146BDE8F08D00204FF48011CD
:1009D000064684460EE0171B73EB050705D3121B72
:1009E00063EB050306434CEA010C49084FEA30006B
:1009F00092185B4150EA0107EDD152EA030012D090
:100A000082EA040083EA0501084305D0101BAB41CC
:100A100006D20122002306E000224FF0004302E04C
:100A20006FF0010253101AEB06004CEB085110EB6B
:100A30000A0041EB0B01BDE8F04D00F03DB8C1F3F9
:100A40000A52C1F3130140F2FF3341F480119A427C
:100A500002DA00200146704740F233439A42A2F284
:100A6000334202DC5242FFF752BEFFF741BE0000A4
:100A7000064C074D06E0E06840F0010394E80700EB
:100A800098471034AC42F6D3FFF7BEFCB46B0000BD
:100A9000D46B0000202A06DBCB17203A41FA02F083
:100AA00043EAE07306E041FA02F3D040C2F12002CB
:100AB000914008431946704710B5141E73F10004A5
:100AC00008DA401C41F1000192185B411A4301D140
:100AD00020F0010010BD2DE9F04D92469B4611B16A
:100AE000B1FA81F202E0B0FA80F220329046FFF7CC
:100AF000FFFD04460F4640EA0A0041EA0B01534657
:100B00005A46084313D0114653EA010019D0C8F1E0
:100B100040025046FFF7FBFD05460E46504659463B
:100B20004246FFF7E5FD084305D0012004E02046DA
:100B30003946BDE8F08D0020054346EAE0762C43B7
:100B400037430A986305E40AA0EB08000022FD0A77
:100B500044EA47540A3002D500200146E9E701057E
:100B600010196941DDE9084500196941BDE8F04DFA
:100B7000A2E7000010B58AB001A802F00FFF2B48D1
:100B800001904FF4F070ADF8080002208DF80A00D3
:100B900008208DF80B002B208DF80C004FF4887086
:100BA000ADF80E000A208DF8100004208DF8110019
:100BB0000C208DF812004002ADF814004FF02040D8
:100BC000069006208DF8200020208DF825000120B9
:100BD0008DF824000D2000F08BFE0446224601A96A
:100BE000134802F033FF0421114802F04CFE352077
:100BF00000F01F02012191404209920002F1E0221F
:100C0000C2F8001100BF00BF0948806940F0010030
:100C10000749886100BF00BF0846806940F4006052
:100C2000886100BF00200AB010BD00004054890058
:100C30000030084010B5042003F012F9094800F014
:100C400097FC094803F030F9074801F0D5F9064848
:100C500001F0AAFA054800F08BFC0348044908603B
:100C600010BD000000111000006CDC020014100028
:100C70000000002070B50C4803F09AF9192000F02C
:100C800037FE05462B4605224FF4E131074801F0B7
:100C9000E7FB044604B904E04A2205A109A004F0D8
:100CA0005DF9204670BD00000B00010000600840A7
:100CB0005352435C426F6172645C626F6172642E76
:100CC000630000006B5374617475735F53756363E5
:100CD000657373203D3D20726573756C7400000070
:100CE00010B586B04FF48E7000F042FC0122022154
:100CF0002D2001F061F904A803F0C2FA04A90E48FE
:100D000003F01CFB05208DF80C0001208DF80D0070
:100D100005208DF80E000A2000F0EAFD044602A826
:100D20004FF47A73012203A9CDE90040024803F091
:100D3000B7FB06B010BD00000050084010B50D20F4
:100D400000F064FC0B2000F061FC40F201731D22F6
:100D50000021FE4802F0D1FC40F201731E22002166
:100D6000FA4802F0CAFC40F2067312220021F7484A
:100D700002F0C3FC40F2067313220021F34802F094
:100D8000BCFC40F2067314220021F04802F0B5FCCE
:100D900040F2067315220021EC4802F0AEFC40F24E
:100DA000067305220121E94802F0A7FC40F2067310
:100DB00006220121E54802F0A0FC40F2067307225A
:100DC0000121E24802F099FC40F206730822012159
:100DD000DE4802F092FC40F206731A220121DB4841
:100DE00002F08BFC40F206731B220121D74802F06F
:100DF00084FC40F2067310220121D44802F07DFCED
:100E000040F2067317220121D04802F076FC40F22E
:100E1000067318220121CD4802F06FFC40F20673E0
:100E200019220121C94802F068FC40F20673192218
:100E30000321C64802F061FC40F206730222002141
:100E4000C24802F05AFC40F2067303220021BF4858
:100E500002F053FC40F2067304220021BB4802F06A
:100E60004CFC40F2067305220021B84802F045FC14
:100E700040F2067306220021B44802F03EFC40F224
:100E8000067307220021B14802F037FC40F20673D6
:100E900008220021AD4802F030FC40F2067309221E
:100EA0000021AA4802F029FC40F206731322012116
:100EB000A64802F022FC40F2067314220121A34846
:100EC00002F01BFC40F20673152201219F4802F03C
:100ED00014FC40F20673042201219C4802F00DFC30
:100EE00040F206731C220121984802F006FC40F2F1
:100EF00006731D220121954802F0FFFB40F20673A4
:100F00001E220121914802F0F8FB40F206731F22D5
:100F100001218E4802F0F1FB40F206730922012103
:100F20008A4802F0EAFB40F206730A220121874850
:100F300002F0E3FB40F206730B220121834802F02A
:100F4000DCFB40F206730C220121804802F0D5FB45
:100F500040F206730D2201217C4802F0CEFB40F2E4
:100F600006730E220121794802F0C7FB40F2067396
:100F70000F220121754802F0C0FB40F206730F22D8
:100F80000021724802F0B9FB4FF480731B2202214A
:100F90006E4802F0B2FB40F20133152202216B4889
:100FA00002F0ABFB40F2013316220221674802F047
:100FB000A4FB40F2013317220221644802F09DFB9A
:100FC00040F2013318220221604802F096FB40F201
:100FD0000133192202215D4802F08FFB40F20133F8
:100FE0001C220221594802F088FB40F201331D22E5
:100FF0000221564802F081FB40F201331E220221F9
:10100000524802F07AFB40F201331F2202214F487E
:1010100002F073FB40F20133002203214B4802F03F
:101020006CFB40F2013301220321484802F065FBCA
:1010300040F2013305220321444802F05EFB40F2F6
:10104000013306220321414802F057FB40F20133ED
:10105000072203213D4802F050FB40F201330822F1
:1010600003213A4802F049FB40F2013309220321EF
:10107000364802F042FB40F201230D2202213348A0
:1010800002F03BFB40F201330B2202212F4802F019
:1010900034FB40F20133102202212C4802F02DFBD8
:1010A00040F201330E220221284802F026FB40F2D2
:1010B00001330F220221254802F01FFB40F2067384
:1010C00012220021214802F018FB40F2067313227D
:1010D00000211E4802F011FB40F206731422002189
:1010E0001A4802F00AFB40F2067315220021174845
:1010F00002F003FB40F2067305220121134802F0BF
:10110000FCFA40F2067306220121104802F0F5FABB
:1011100040F20673072201210C4802F0EEFA40F279
:10112000067308220121094802F0E7FA40F206732B
:101130001A220121054802F0E0FA40F206731B2250
:101140000121024802F0D9FA02E00000001000403C
:1011500040F2067310220121844802F0CEFA40F2D8
:10116000067317220121814802F0C7FA40F2067384
:10117000182201217D4802F0C0FA40F206731922BC
:1011800001217A4802F0B9FA40F2067319220321CC
:10119000764802F0B2FA40F2067302220021734848
:1011A00002F0ABFA40F20673032200216F4802F00E
:1011B000A4FA40F20673042200216C4802F09DFA62
:1011C00040F2067305220021684802F096FA40F2C8
:1011D000067306220021654802F08FFA40F206737A
:1011E00007220021614802F088FA40F206730822C3
:1011F00000215E4802F081FA40F2067309220021C4
:101200005A4802F07AFA40F2067313220121574835
:1012100002F073FA40F2067314220121534802F0DF
:101220006CFA40F2067315220121504802F065FA6B
:1012300040F20673042201214C4802F05EFA40F2AB
:1012400006731C220121494802F057FA40F2067346
:101250001D220121454802F050FA40F206731E2279
:101260000121424802F049FA40F206731F2201218F
:101270003E4802F042FA40F20673092201213B483F
:1012800002F03BFA40F206730A220121374802F0CD
:1012900034FA40F206730B220121344802F02DFA91
:1012A00040F206730C220121304802F026FA40F287
:1012B00006730D2201212D4802F01FFA40F2067339
:1012C0000E220121294802F018FA40F206730F227B
:1012D0000121264802F011FA40F206730F22002184
:1012E000224802F00AFA40F20173172203211F4834
:1012F00002F003FA40F20173182203211B4802F0A6
:10130000FCF940F2031312220221184802F0F5F909
:1013100040F2031313220221144802F0EEF940F2C6
:10132000031314220221114802F0E7F94FF48173EC
:10133000012204210D4802F0E0F94FF481730222EA
:1013400004210A4802F0D9F94FF4817303220421E1
:10135000064802F0D2F940F201130B2203210348A0
:1013600002F0CBF901200249086010BD00100040D6
:101370002004004000B591B000208DF840008DF8A9
:1013800041008DF8420001208DF80C0043F6095011
:101390000490122005902A200690432007901220E6
:1013A00008900C2000F0A4FA1749B1FBF0F0801D62
:1013B0000A9005990A98084409903C200B900C90DB
:1013C00043200D900C200E9002208DF83C00002050
:1013D0008DF800008DF8010002208DF80200232016
:1013E000ADF804000020ADF8060009208DF80800D3
:1013F00010A9064801F06AFB01236A4603A90348C5
:1014000001F0D6F911B000BD00CA9A3B00100840A7
:1014100010B50848006800B105E04FF4487206A115
:101420000BA003F09BFD034801680D480D4A1268AC
:10143000904710BD400000205352435C44726976CF
:101440006572735C66736C5F6D63616E2E63000022
:10145000735F6D63616E48616E646C655B305D00E7
:1014600000D009404800002010B50848006800B1CD
:1014700005E040F2273206A10BA003F06FFD034800
:1014800001680D480D4A1268904710BD40000020C9
:101490005352435C447269766572735C66736C5F29
:1014A0006D63616E2E630000735F6D63616E4861F2
:1014B0006E646C655B305D0000D009404800002020
:1014C00010B50848406800B105E04FF44C7206A121
:1014D0000BA003F043FD034841680D480D4A126814
:1014E000904710BD400000205352435C447269761F
:1014F0006572735C66736C5F6D63616E2E63000072
:10150000735F6D63616E48616E646C655B315D0035
:1015100000E009404800002010B50848406800B1CC
:1015200005E040F2373206A10BA003F017FD034897
:1015300041680D480D4A1268904710BD40000020D8
:101540005352435C447269766572735C66736C5F78
:101550006D63616E2E630000735F6D63616E486141
:101560006E646C655B315D0000E00940480000205E
:10157000F0B500240F4D002316E003EB4306B60040
:10158000F040C1B270B1C0F30326761EF2B21F293B
:1015900005D10126B707FE64074E326203E045F825
:1015A000212000E001245B1C022B01D8002CE4D098
:1015B000F0BD00008002004000000440010A032941
:1015C00005D201228240054B43F8212005E001228B
:1015D0009307DA648240024B5A6170472002004050
:1015E00000000440010A032905D201228240054B74
:1015F00043F8212005E001229307DA648240024B80
:101600005A6170472002004000000440010A03298B
:1016100005D201228240054B43F8212005E001223A
:101620009307DA648240024B5A61704720020040FF
:101630000000044068B10C49096841F400710A4A8D
:101640001160111D096841F008020749091D0A606F
:1016500008E04FF40071044A103A11600822024970
:101660000C390A60704700003006004000B5114890
:10167000006810B900F0AEFA00BD0E4800680128FD
:1016800002D100F0ABFBF7E70A480068022802D15C
:1016900000F06CFCF0E707480068032802D100F076
:1016A00075F8E9E703480068072801D10020E3E75F
:1016B0000020E1E7A402004010B500BF0849096A14
:1016C00001F003010C4614B1012C05D102E000F039
:1016D0009FF803E0034801E0002000BF00BF10BDF9
:1016E00000000440001BB70000B500210948006855
:1016F00000F0070010B1012806D101E0064905E01D
:1017000000F0C4F8014601E0002100BF00BF084618
:1017100000BD000098020040001BB7002DE9F04713
:101720000446FFF7E1FF0746208800F40040F0B9C7
:10173000D4E9000104F09FFB8146A168206804F011
:101740008AFB8046B7FBF9F7E168206804F076FB76
:101750008246A7FB0A5006464246002328463146E9
:10176000FEF74EFF05460220A5FB005100E03D4676
:101770002846BDE8F087000010B504462046FFF774
:10178000CDFF0149086010BD0C0000200148006831
:10179000704700000C00002000B51C48006810B91C
:1017A00000F036F800BD19480068012802D100F0A9
:1017B0006DF8F7E715480068022802D100F0DCFB5D
:1017C000F0E712480068032802D100F003FAE9E7C5
:1017D0000E480068042802D100F000FBE2E70B4845
:1017E0000068052802D100F0C1FBDBE7074800686C
:1017F000062802D1FFF7CAFFD4E70448006807288B
:1018000002D100F04BFACDE70020CBE78802004080
:1018100000B51D48006830B91B48001F006810B9AA
:1018200000F0CAF900BD1848006838B91648001F12
:101830000068012802D100F029F8F3E71248006897
:1018400038B91148001F0068022802D100F094FB4B
:10185000E8E70D48006838B90B48001F0068032806
:1018600002D100F0B7F9DDE707480068022802D18D
:1018700000F0B4FAD6E704480068032802D100F06B
:101880000DFACFE70020CDE7840200400048704702
:10189000001BB70010B50446144850F8240010B9D6
:1018A00000F08AF910BD114850F82400012802D137
:1018B00000F090F9F6E70D4850F82400022802D114
:1018C00000F08CFAEEE7094850F82400032802D112
:1018D00000F0A0F9E6E7054850F82400042803D1F9
:1018E000152000F005F8DDE70020DBE7B00200403E
:1018F00070B50546232D70D2DFE805F012161F5B88
:1019000029333D476F51CFD9F2F0EFEE5F63676F38
:101910006B7092CBEDECEBEAE9E8E7E6E5E4E30097
:10192000FFF776FF044642E1FFF772FFA14909681D
:10193000C9B2491CB0FBF1F439E1FFF72DFF9D4915
:10194000091D0968C9B2491CB0FBF1F42FE100F090
:101950009FFA984910310968C9B2491CB0FBF1F4EB
:1019600025E1FFF783FE934914310968C9B2491C88
:10197000B0FBF1F41BE100F0B9FA8E4918310968A7
:10198000C9B2491CB0FBF1F411E100F0CFFA89496A
:101990001C310968C9B2491CB0FBF1F407E100F041
:1019A0005DF984492C310968C9B2491CB0FBF1F4D6
:1019B000FDE000F00FF90446F9E000F0FDF8044600
:1019C000F5E0FFF763FF0446F1E000F007FA044694
:1019D000EDE000F0D1FA0446E9E0E6E07548983819
:1019E000006810B9FFF714FF18E0724898380068D3
:1019F000012802D100F0F2F910E06E489838006832
:101A0000022802D100F0D8F808E06A489838006847
:101A1000032802D100F0DEF800E000200446C6E012
:101A200064489438006810B900F0C6F828E06148AE
:101A300094380068012802D100F0CCF820E05D481D
:101A400094380068022802D100F0C8F918E059481B
:101A500094380068032802D100F0DCF810E0554803
:101A600094380068042802D1FFF7D2FE08E05148FC
:101A700094380068052802D100F07EFA00E00020CA
:101A800004464C4828300068C0B2401CB4FBF0F457
:101A90008DE0FFF711FE044689E000F0A5F9454905
:101AA00034310968C9B2491CB0FBF1F47FE000F0A1
:101AB000C1F940493C310968C9B2491CB0FBF1F495
:101AC00075E06DE067E061E05BE055E04FE049E024
:101AD00043E03DE037E032E027E01CE011E0FFE7C3
:101AE000FFF796FE33490968C9B2491CB0FBF1F112
:101AF0004FF08040D0F8B803C0B2401CB1FBF0F406
:101B000055E000F089F82B4930310968C9B2491C09
:101B1000B0FBF1F44BE0FFF77BFE2649783909680A
:101B2000C9B2491CB0FBF1F441E0FFF771FE214955
:101B300074390968C9B2491CB0FBF1F437E000F010
:101B400069F8044633E00020FFF7A4FE04462EE0C7
:101B50000120FFF79FFE044629E00220FFF79AFECE
:101B6000044624E00320FFF795FE04461FE004200E
:101B7000FFF790FE04461AE00520FFF78BFE0446AF
:101B800015E00620FFF786FE044610E00720FFF769
:101B900081FE04460BE00820FFF77CFE044606E0C9
:101BA0000920FFF777FE044601E0002400BF00BFD4
:101BB000204670BD800300400448006800F010001B
:101BC00008B1002070470248FCE700001006004002
:101BD000001BB7000B48006800F0100008B100209F
:101BE00070470948006800F0804008B90020F7E716
:101BF0000548006800F4804008B10448F0E7044854
:101C0000EEE70000100600400005004000D8B805CF
:101C1000006CDC020020704700B50E48006810B967
:101C2000FFF7F6FD00BD0B480068012802D100F067
:101C300013F8F7E707480068022802D1FFF7CAFF48
:101C4000F0E704480068032801D10020EAE70020FB
:101C5000E8E70000F40200400020704700B50E489D
:101C6000006848B9FFF7B6FF0B49A8310968C9B247
:101C7000491CB0FBF1F000BD07480068012802D103
:101C8000FFF784FDF7E704480068072801D100202A
:101C9000F1E70020EFE70000E00200404FF40040D1
:101CA000704700002DE9F04F89B004460E461746F4
:101CB000012007904FF0000B05904FF002094448B7
:101CC000864203D9022009B0BDE8F08F4148864220
:101CD00001D20120F7E7B4F57A6F01D20320F2E7D1
:101CE00035460CE00BF1010BBBF1200F01D90520AB
:101CF000E9E74FEA4B0000FB06F500200590364867
:101D00008542EFD3B4F57A6F18D9A54216D309FBF3
:101D100004F1284601F0B5F9804644F6206080457C
:101D20000BD909FB04F0B0FBF8F8B8F1000F04D0B0
:101D3000B8F1FF0F01D8CDF81C8000BF079801282B
:101D400002D90020069001E0012006900798B4FB1C
:101D5000F0F008900898B5FBF0F0B0FBF9FA09FB39
:101D60000AF0012101EB400108984843B0EB450F10
:101D700001D20AF1010A02AB03AA04A9504604F0F9
:101D8000BDF900200190504604F044F9C0F3100062
:101D9000F860079804F068F9C0F3090078605846C5
:101DA00004F08BF9C0F30900B860DDE9020140EAF4
:101DB0000110049940EA8121019841EA40410698C6
:101DC00041EAC041059841EA0050386000207AE7B6
:101DD0008055C820AB904100C02A641001480068BB
:101DE000704700000400002000B51148006810B9D9
:101DF000FFF70EFD00BD0E480068012802D1FFF775
:101E0000EDFFF7E70A480068022802D1FFF7E2FE7B
:101E1000F0E707480068032802D1FFF7B7FCE9E7BD
:101E200003480068072801D10020E3E70020E1E72C
:101E3000F002004000B51548006810B9FFF7E8FC53
:101E400000BD12480068012802D1FFF7C7FFF7E77D
:101E50000E480068022802D100F088F8F0E70B482D
:101E60000068032802D1FFF7B5FEE9E707480068DC
:101E7000042802D1FFF78AFCE2E70448006807283B
:101E800001D10020DCE70020DAE70000F802004082
:101E900000B51548006810B9FFF7BAFC00BD12483C
:101EA0000068012802D1FFF799FFF7E70E480068A4
:101EB000022802D100F05AF8F0E70B480068032826
:101EC00002D1FFF787FEE9E707480068042802D13E
:101ED000FFF75CFCE2E704480068072801D1002016
:101EE000DCE70020DAE70000A002004000B50E4861
:101EF000006810B9FFF76EFE00BD0B4800680128AE
:101F000002D1FFF76BFFF7E707480068022802D10C
:101F100000F02CF8F0E704480068072801D1002001
:101F2000EAE70020E8E70000A802004000B50E48FC
:101F3000006810B9FFF74EFE00BD0B48006801288D
:101F400002D1FFF74BFFF7E707480068022802D1EC
:101F500000F00CF8F0E704480068072801D10020E1
:101F6000EAE70020E8E70000AC0200400148006812
:101F700070470000080000200C48006800F4801042
:101F800008B1002070470A48006800F01F00401C9C
:101F9000410007480068C0F34410064B1A5C4CF23D
:101FA00050305043B0FBF1F0ECE700001006004069
:101FB000080500407C61000010B51346074A1BB1BC
:101FC0004FF0005442F8204021B94FF0804442F8CD
:101FD000204002E04C1E42F8204010BD00030040AB
:101FE000044A126822F4704141EA0032014B1A603F
:101FF000704700000004004010B504461D488442AC
:1020000003D80020FFF7ECFF33E01B48844203D8DD
:102010000120FFF7E5FF2CE01848844203D8022096
:10202000FFF7DEFF25E01648844203D80320FFF7C0
:10203000D7FF1EE01348844203D80420FFF7D0FFE7
:1020400017E01148844203D80520FFF7C9FF10E0CC
:102050000E48844203D80620FFF7C2FF09E00C486F
:10206000844203D80720FFF7BBFF02E00820FFF7F8
:10207000B7FF10BD001BB70000366E0100512502EE
:102080000087930300D8B805000E27070044950881
:10209000007A030A2DE9F04104460D46207A00F04B
:1020A000010008B1666802E0FFF71EFB0646002348
:1020B0002A4630462168FFF7F5FD0746206828616B
:1020C0003846BDE8F0810000F8B504460D463348B7
:1020D0000068002010B10120FFF7ACFA01F0D4FE37
:1020E0004FF4817001F0C6FE65612D4920680860DB
:1020F0002B49083160680860606840F480600860BF
:10210000091DA0680860A06840F080000860091DF3
:10211000E0680860E06840F4003008604FF40000B8
:10212000091D0860207D00F0030028B31D4F081F23
:10213000006820F40036081F07604FF4817001F03A
:1021400085FE47F4003016491031086000200090E9
:1021500002E00098401C00900098AC28F9D3104889
:102160001030066046F400300D49103108604FF41D
:10217000817001F06BFE00BF207D00F0020040B1D5
:1021800000BF00BF0648001D006800F001000028E5
:10219000F7D02046FFF7F0FA0020F8BD9802004083
:1021A000A0050040D25D040070B504462148844279
:1021B00007D08000844204D04000844201D0012036
:1021C00070BD042001F042FE1B480068C0F30065AA
:1021D0001848844225D9C000844211D117480068AC
:1021E0001749084040F4804040F000404FF08071B3
:1021F00001EA0561084340F080400F49086016E09D
:102200000E48001F00680E49084040F000404FF0A3
:10221000807101EA0561084340F08040064908608A
:1022200005E00548006820F0804003490860002070
:10223000C6E70000001BB700000500404C04000189
:10224000FF3FFF0010B5002000F018F810BD10B5DA
:10225000012000F013F810BD10B5022000F00EF8B8
:1022600010BD10B5032000F009F810BD10B5042012
:1022700000F004F810BD0160704700002DE9F04146
:1022800004461A4951F8240001680E46174951F8CE
:1022900024003146FFF7EFFF1548005D58B9154897
:1022A00050F824000068F0B1124850F8240001688A
:1022B0003046884717E0002513E0012000FA05F7B3
:1022C00006EA070060B10B4850F8240050F82500DA
:1022D00030B1084850F8240050F82510304688479F
:1022E0006D1C072DE9D9BDE8F0810000CC6100002C
:1022F00010000020840000202DE9F04100274BE071
:10230000274850F8274004B945E0207B4511207B41
:1023100000F01F06A0682030C5EBC50101EB0511D8
:1023200000EB8100806B0121B140084090B1012099
:10233000B040A1682031C5EBC50202EB051201EBEC
:1023400082018863206828B1002301222046D4E955
:1023500000C1E047A0682030C5EBC50101EB0511C5
:1023600000EB8100006C0121B140084090B10121D7
:10237000B140A0682030C5EBC50202EB051200EBAE
:1023800082000164206828B101231A462046D4E95E
:1023900000C1E04700BF7F1C1E2FB1DBBDE8F0810C
:1023A0000002002010B50348006810B10149086818
:1023B000804710BD180000202DE9F04F07468C46DD
:1023C000914600203946834601F801BBB9F1000F60
:1023D0001ED0DCF8004034B94FF0300B81F800B06B
:1023E000401CBDE8F08F10E094FBF3F808FB1345A8
:1023F000002D05DA2A466FEA020B0BF1310500E0E9
:102400003035444601F8015B401C002CECD125E03E
:10241000DCF800602EB94FF0300B81F800B0401CA2
:10242000DFE719E0B6FBF3FA0AFB13620A2A01D2CE
:1024300030320DE0A2F10A0BDDF824E0BEF1000F0E
:1024400002D04FF0410E01E04FF0610E0BEB0E0297
:10245000564601F8012B401C002EE3D100BFC0E717
:10246000FEB505460E4614461F461048007808B1D2
:102470000120FEBD0D480470052C11D14560684651
:1024800002F048F9009609493A464868694602F060
:102490006DF907480549886006490448C16001E0B4
:1024A0000420E6E700BF0020E3E7000074000020FE
:1024B0008D4A0000A54800000FB438B509480078DF
:1024C00020B94FF0FF3038BC5DF814FB05A8009030
:1024D0000548009A049900F009F80446002000908D
:1024E0002046F0E774000020512700002DE9F74F47
:1024F00092B006468B464FF00008C1460020079078
:10250000039001905D4606E1252C05D02046B0479A
:102510000798401C0790FDE04FF0010A002006904C
:10252000089012E0681C05460478302C0ADB392C30
:1025300008DCA4F13000069901EB810100EB4100B9
:10254000069002E06D1E0120089008980028E9D04E
:1025500006200590681C054600782E281AD1002018
:102560000590089012E0681C05460478302C0ADBC0
:10257000392C08DCA4F13000059901EB810100EB56
:102580004100059002E06D1E012008900898002887
:10259000E9D000E06D1E681C05460478642C11D05B
:1025A000692C0FD0662C0DD0462C0BD0782C09D07E
:1025B000582C07D06F2C05D0622C03D0702C01D082
:1025C000752C77D1642C01D0692C11D11498006836
:1025D00002901498001D14900A23012202A909A850
:1025E000CDF800A0FFF7E8FE814609A800EB090836
:1025F000582C01D0782C15D1782C01D14FF0000A3D
:102600001498006801901498001D14901023002263
:1026100001A909A8CDF800A0FFF7CEFE814609A8C0
:1026200000EB09086F2C05D0622C03D0702C01D070
:10263000752C28D11498006801901498001D1490EE
:10264000622C09D06F2C04D0702C08D0752C0CD1C2
:1026500008E00820039009E00220039006E0102023
:10266000039003E00A20039000E000BF00BFCDF814
:1026700000A0002201A909A8039BFFF79DFE814647
:1026800009A800EB090807AB009649462020069AE6
:1026900000F049F8B8F1000F3BD005E018F8010947
:1026A000B0470798401C079098F800000028F5D123
:1026B0002FE0FFE7632C0BD1149810F8041B149043
:1026C000C8B204900498B0470798401C079020E0D7
:1026D000732C19D1149880C81490D7B13846FDF7DF
:1026E000D2FF814607AB009649462020069A00F0AB
:1026F0001AF805E017F8010BB0470798401C07903F
:1027000038780028F6D104E02046B0470798401CEE
:10271000079000BF6D1C2878041E7FF4F5AE079863
:1027200015B0BDE8F08F2DE9F04780460D461646FE
:102730001C46DDF820902F4605E04046C84720683B
:10274000401C20607F1CB742F7DBBDE8F08700002B
:1027500001B50748007810B94FF0FF3008BD0449B3
:10276000486801228B68694698470120F6E7000017
:10277000740000202DE9F04107460E4615460C2056
:10278000FFF7B6F80949B0FBF1F000FB06F404F2DC
:10279000E7304FF47A71B0FBF1F4AC4201D3641B23
:1027A00000E000242046BDE8F081000040420F0018
:1027B0002DE9FC5F04460E4690469946B8F1000F9D
:1027C00000D004E0DD228FA194A002F0C7FB06B187
:1027D00004E0DE228BA193A002F0C0FBB9F1040F4C
:1027E00000D804E0DF2287A190A002F0B7FB4546A5
:1027F000002724E06878182101EAC000297A4FF404
:10280000BF4202EAC11108432A7804F5807101EB46
:10281000421108602879C0F302100190A87800F0F6
:1028200003014FF44072019802EA002008432A781D
:1028300004F5807101EB421148600A357F1C4F4559
:1028400001D2002DD6D1307800F00300A062012221
:102850002046B168FFF78EFF00F00F0020630122D1
:102860002046F168FFF786FF00F00F006063012249
:1028700020463169FFF77EFF00F00F00A0630122C0
:1028800020467169FFF776FF00F00F00E063002239
:102890002046B169FFF76EFF00F00F0020640122AF
:1028A0002046F169FFF766FF00F00F006064012227
:1028B0002046316AFFF75EFF00F01F00A06401228E
:1028C0002046716AFFF756FF00F01F00E064012206
:1028D0002046B16AFFF74EFF00F01F00206501227D
:1028E0002046F16AFFF746FF00F00F00606596F89A
:1028F0003000002803DD96F83000401E00E0002084
:1029000000F00F00A065002700E07F1CB7F5FA6F0C
:10291000FBD340F283102062002700E07F1CB7F554
:10292000FA6FFBD340F2031020620220606200279E
:1029300000E07F1CB7F57A7FFBD300222046716848
:10294000FFF718FF000960628320206245460027D8
:1029500015E0287A00F0F8F8824628783D4951F8C9
:102960002010A88820F4C04202FA0AF241EA020BC1
:10297000DBF800000090009800900A357F1C4F455E
:1029800001D2002DE5D198F8010000B38320206228
:102990004546002717E0287A00F0D6F882462878C6
:1029A0002C4951F82000E98821F4C04141F48041CC
:1029B00001FA0AF140EA010BDBF8000000900098F0
:1029C00000900A357F1C4F4501D2002DE3D1002035
:1029D0002062454600270FE0297804F5807000EB5F
:1029E0004110006840F400212A7804F5807000EB63
:1029F000421001600A357F1C4F4501D2002DEBD1FA
:102A0000BDE8FC9F5352435C447269766572735C07
:102A100066736C5F656D632E63000000636F6E66A6
:102A20006967000074696D696E670000746F746196
:102A30006C4368697073203C3D20454D435F4459A9
:102A40004E414D49435F4D454D4445565F4E554DB2
:102A5000000000002000002070B50546002406E0BC
:102A6000094850F82400A84200D102E0641C002C60
:102A7000F6D000BF04B904E0702204A109A002F05E
:102A80006DFA204670BD00000C6200005352435C9A
:102A9000447269766572735C66736C5F656D632EF4
:102AA00063000000696E7374616E6365203C2046AC
:102AB000534C5F464541545552455F534F435F4524
:102AC0004D435F434F554E540000000070B506461D
:102AD0000C463046FFF7C0FF164931F81050280A5F
:102AE000032805D20121A940134A42F8201005E02D
:102AF00001218A07D164A940104A516100BF1048E2
:102B0000006840F080010E480160006820F08001FC
:102B10000B480160A0780B4908606078082101EA41
:102B2000C00008498C3108602078B0600120306016
:102B300070BD000008620000200200400000044058
:102B400008010040B80300400146002001F00302E4
:102B5000102A01D1082010E00AB9092000E008205D
:102B6000C1F3C103012B02D1431CD8B205E0C1F36C
:102B7000C103022B01D1831CD8B201F0800313B131
:102B8000831CD8B201E0431CD8B201F020033BB94A
:102B900001F01C0313B9431CD8B201E0831CD8B266
:102BA0007047000010B5034801680348034A1268E3
:102BB000904710BD30000020002009403400002064
:102BC00010B50848006800B104E0A32206A10DA0DA
:102BD00002F0C4F9114B1968114B1868014B1A68BF
:102BE000904710BDE00500205352435C4472697663
:102BF0006572735C66736C5F666C6578636F6D6D30
:102C00002E630000735F666C6578636F6D6D49724B
:102C10007148616E646C65725B305D00080600206F
:102C20001C62000010B50848406800B104E0AA2208
:102C300006A10DA002F092F9114B5968114B58688A
:102C4000014B5A68904710BDE00500205352435C89
:102C5000447269766572735C66736C5F666C6578E6
:102C6000636F6D6D2E630000735F666C6578636FD4
:102C70006D6D49727148616E646C65725B315D00A7
:102C8000080600201C62000010B50848806800B1EA
:102C900004E0B22206A10DA002F060F9114B996880
:102CA000114B9868014B9A68904710BDE0050020D1
:102CB0005352435C447269766572735C66736C5FF1
:102CC000666C6578636F6D6D2E630000735F666C74
:102CD0006578636F6D6D49727148616E646C657281
:102CE0005B325D00080600201C62000010B5084839
:102CF000C06800B104E0BA2206A10DA002F02EF9CE
:102D0000114BD968114BD868014BDA68904710BD58
:102D1000E00500205352435C447269766572735C2F
:102D200066736C5F666C6578636F6D6D2E63000013
:102D3000735F666C6578636F6D6D49727148616E23
:102D4000646C65725B335D00080600201C62000045
:102D500010B50848006900B104E0C22206A10DA028
:102D600002F0FCF8114B1969114B1869014B1A69F3
:102D7000904710BDE00500205352435C44726976D1
:102D80006572735C66736C5F666C6578636F6D6D9E
:102D90002E630000735F666C6578636F6D6D4972BA
:102DA0007148616E646C65725B345D0008060020DA
:102DB0001C62000010B50848406900B104E0CB2255
:102DC00006A10DA002F0CAF8114B5969114B5869C0
:102DD000014B5A69904710BDE00500205352435CF7
:102DE000447269766572735C66736C5F666C657855
:102DF000636F6D6D2E630000735F666C6578636F43
:102E00006D6D49727148616E646C65725B355D0011
:102E1000080600201C6200000748006800F004005B
:102E200040B1064800680449083108608815024925
:102E30001439086070470000187E09406C000020BB
:102E400008B54FF480301149086010482C300068F4
:102E500000900F4900980860BDF9000001EE100ACB
:102E6000B8EEC11ADFED0B1A81EE212AB0EE420A4C
:102E7000BDF9020001EE100AB8EEC11ADFED051A25
:102E800081EE212AF0EE420A08BD0000048E0940BE
:102E90006C0000200000004710B50848006A00B12F
:102EA00004E0E52206A10DA002F058F8114B196AC2
:102EB000114B186A014B1A6A904710BDE0050020BB
:102EC0005352435C447269766572735C66736C5FDF
:102ED000666C6578636F6D6D2E630000735F666C62
:102EE0006578636F6D6D49727148616E646C65726F
:102EF0005B385D00080600201C62000010B5084821
:102F0000406A00B104E0ED2206A10DA002F026F80F
:102F1000114B596A114B586A014B5A6A904710BDC0
:102F2000E00500205352435C447269766572735C1D
:102F300066736C5F666C6578636F6D6D2E63000001
:102F4000735F666C6578636F6D6D49727148616E11
:102F5000646C65725B395D00080600201C6200002D
:102F600070B50546002407E0074850F82400A84241
:102F700001D1204670BD641C0A2CF5DB612203A13F
:102F800009A001F0EBFF00001C6200005352435CFB
:102F9000447269766572735C66736C5F666C6578A3
:102FA000636F6D6D2E63000066616C7365000000D9
:102FB00070B505460E462846FFF7D2FF0446002CA2
:102FC00001DA042070BD0C4931F81400010A03290C
:102FD00005D201228240094B43F8212005E001225D
:102FE0009307DA648240064B5A6100BF00223146E3
:102FF000284600F024F8E5E7446200002002004083
:103000000000044010B5024609B9012010BD012995
:103010000CDB04290ADCD2F8F80FCB1C01249C40FD
:10302000204008B10120F1E70020EFE7052904D195
:10303000D2F8F80FC0F3C010E8E70020E6E770B55B
:1030400004460D46164629462046FFF7DBFF08B921
:10305000032070BDD4F8F80F00F0080038B1D4F8A0
:10306000F80F00F00700A84201D00120F1E726B1D7
:1030700045F00800C4F8F80F01E0C4F8F85F00203C
:10308000E7E705E00A46B0FBF1F301FB1301104648
:103090000029F7D17047000010B5074800680068A4
:1030A00040F001000449096808600448006810B154
:1030B00002490868804710BD5862000038000020AF
:1030C00010B507484068006840F0010004494968AD
:1030D00008600448406810B102494868804710BD44
:1030E000586200003800002010B50348006810B195
:1030F00001490868804710BD1C00002001F0500203
:10310000C0F80428704741B1D0F8002802F01F022F
:1031100042F00102C0F8002805E0D0F8002802F0D3
:103120001E02C0F800287047012101700249416069
:103130000021017270470000A086010070B50546AD
:103140000C46164603212846FFF732FF2178284611
:10315000FFF7D9FF32462846616800F077F870BD66
:103160002DE9F05F04460E4617469A460025B14603
:1031700006B105E04FF48B7227A12DA001F0EEFE01
:103180004FF0000837E0204600F0B4F9054605F09E
:10319000500000B131E0C5F3420BBBF1010F06D086
:1031A000BBF1030F19D0BBF1040F1AD116E0D4F80C
:1031B000280809F8010B781E071E03D00120C4F867
:1031C000200809E00AF0040030B90420C4F82008FF
:1031D000204600F08FF9054606E000BF40F62A2899
:1031E00002E040F6312800BF00BFB8F1000F02D066
:1031F0004046BDE8F09F002FC5D100BF05F010008C
:1032000010B140F62D20F4E705F0400010B14FF466
:103210002360EEE70020ECE75352435C447269768A
:103220006572735C66736C5F6932632E63000000C5
:10323000727842756666000070B504460D46164603
:1032400032462946204600F045F870BD2DE9F0478A
:1032500003460C4615464FF0000C092021E004FB04
:1032600000F84FEA4808B5FBF8F1B1F5803F02D904
:103270004FF4803800E08846414604FB00F84FEAEE
:10328000480808FB1152624502D3BCF1000F02D17D
:103290000F460646944612B1B1F5803F00D302E0D6
:1032A000401E0228DBD200BFA7F101081FFA88F8F0
:1032B000C3F81488A6F1020808F00708A6F102096D
:1032C0004FF0700A0AEA091948EA0908C3F8248885
:1032D000BDE8F08770B504460D461646204600F05E
:1032E00009F9304665F35F00C4F828080220C4F8E5
:1032F0002008002070BD10B50446204600F0FAF802
:103300000420C4F82008002010BD00002DE9F84377
:1033100080460C46002504B105E040F25D1232A162
:1033200037A001F01BFE207800F00100002837D103
:10333000E06820B3217900224046FFF7CBFF054625
:10334000002D2DD1A768E068461E04E0F8B20DF804
:1033500006003F0A761E002EF8DA0423694640462E
:10336000E26800F051F80546D5B9A079012817D1D7
:10337000A27921794046FFF75FFF054610E02078EB
:1033800000F0020030B1A27921794046FFF754FFE6
:10339000054605E0A27921794046FFF79BFF0546E7
:1033A000BDB9A07948B9606938B140462368D4E90D
:1033B000041200F029F805460BE0A079012808D195
:1033C000606930B140462368D4E90412FFF7C8FEB3
:1033D000054640F62A20854202D14046FFF78BFF82
:1033E0002846BDE8F88300005352435C4472697676
:1033F0006572735C66736C5F6932632E63000000F4
:1034000078666572000000002DE9F05F05460E4603
:1034100017469A46B14606B104E0C8222DA133A052
:1034200001F09CFD4FF0000832E0284600F062F801
:10343000044604F0100018B140F62D20BDE8F09FBE
:1034400004F0400010B14FF42360F7E7C4F3420BDF
:10345000BBF1020F06D0BBF1030F0CD0BBF1040F80
:103460000DD109E019F8010BC5F828087F1E0120CD
:10347000C5F8200806E000BF40F62A2802E040F622
:10348000312800BF00BFB8F1000F01D04046D5E79A
:10349000002FCAD1284600F02DF8044604F0500051
:1034A00048B90AF0040030B90420C5F820082846BD
:1034B00000F020F8044604F0100010B140F62D2072
:1034C000BCE704F0400010B14FF42360B6E70020E1
:1034D000B4E700005352435C447269766572735CD2
:1034E00066736C5F6932632E630000007478427506
:1034F0006666000070B5054600BF00BFD5F80448F9
:1035000000BF04F001000028F7D050212846FFF743
:10351000F5FD204670BD00002DE9F04106460C4641
:1035200004B104E0942226A12BA001F017FD002590
:1035300000272078302101EA001005436078C0217F
:1035400001EA80100543A0784FF4807101EA002061
:103550000543E078490001EA4020054320798900CD
:1035600001EAC02005436079490001EA00300543C3
:10357000A079490001EA40300543A07AC91001EA68
:1035800080200543E07A401E4FF4F81101EA004024
:103590000543A089401EC0F308000743E089104995
:1035A00001EA00400743C6F8005CC6F8047C2089A5
:1035B000401EC0F30B00C6F81C0CBDE8F0810000F3
:1035C0005352435C447269766572735C66736C5FD8
:1035D0006932732E63000000636F6E6669670000D6
:1035E0000000FF01D0F8001C41F00101C0F8001CF0
:1035F0007047C0F8101E7047002101704170817043
:10360000C1700171417181710121018100218172BB
:103610001021C172202181810021C1810421017406
:1036200000214174817470472DE9F04105460E4632
:103630000024002705212846FFF7BAFC314628461A
:10364000FFF76AFF44F0020444F40034B07C082120
:1036500001EAC000044347F00207307C4FF47021B8
:1036600001EA00400743C5F8004EC5F8087EBDE8F2
:10367000F08103210170002141708170C1700171DE
:103680004171817101210181002181721021C1727A
:10369000202181810021C181042101740121417413
:1036A0000021817470472DE9F04106460D46002443
:1036B000002704213046FFF77BFC29463046FFF700
:1036C0002BFF44F0010444F48034687C042101EAB7
:1036D00080000443A87C082101EAC000044347F0AD
:1036E0000107287C4FF4706101EA00200743C6F807
:1036F000004EC6F8087EBDE8F08110B500EBC1149D
:1037000044F8223010BD000000B593B01C22474998
:1037100006A8FCF7A6FF4FF48770FDF729FF444881
:1037200000F046FC694606A8FEF7B4FC03200590AD
:1037300068460599FEF7C8FC40F21230FDF718FF05
:1037400040F21330FDF714FF4FF40670FDF710FF41
:1037500000203849086010A8FFF7E6FC36481190B1
:10376000364A10A93648FFF7E9FC0EA801F0E8F93F
:1037700006208DF83A0004210EA8C17030480D9043
:103780000EA90DA801F0E9F910B12EA0FEF794FEE4
:10379000392211460DA801F076FB2548001D00F0E6
:1037A00007FC2348401D00F003FC2C48FFF761FF95
:1037B000FDF7ECFF4FF4FA41B0FBF1F00009C0F364
:1037C0004F00264908812648FFF716FF02202449AA
:1037D0000874224908742348FFF765FF20492248EE
:1037E000FFF722FF0021142000F05EFA00211520CF
:1037F00000F05AFA142000F04BFA152000F048FAB5
:103800004FF0FF3019490860086004211548FFF7A0
:10381000F0FE08211448FFF7ECFE1248FFF7E2FE25
:103820001148FFF7DFFE13B000BD0000986B0000E9
:103830000D000100AC030040801A0600001BB70019
:1038400000800840574D383930345F496E69742024
:103850006661696C6564210D0A000000440800205F
:10386000580800200070094000800940207E09406F
:10387000024601F0010008B1C2F8240C01F01E005C
:1038800000B1906270470A4602F0010121B1D0F800
:10389000203C0B43C0F8203C02F01E0111B1C3696B
:1038A0000B43C36170470000F0B503460D4600208E
:1038B0001060186805EB50001E68B0FBF6F1012996
:1038C00009D893F82100202803D100214005106079
:1038D0002AE00020F0BD891E1F2901D90020F9E748
:1038E00093F8210000B9E9B193F82100802801D1B3
:1038F000042917D393F82100102801D1022911D3EC
:1039000093F82100502801D108290BD393F8210006
:10391000902801D1082905D393F82100D02803D19C
:103920000E2901D20020D5E793F8210000F02000F5
:1039300018B19888401E84B21CE093F8210000F072
:10394000100080B193F8210000F0400028B1988861
:103950000126C6EBD00084B20CE098880126C6EBA5
:10396000900084B206E0988800EB40000126C6EB88
:10397000D00084B201F01F004E094FF0784707EAEB
:10398000C6663043044E06EA0446304316683043A8
:10399000106001209EE700000000FF03002101608D
:1039A00081808171C17101724181017341738173A1
:1039B0000121C173002101828174C174416181615F
:1039C0000177C18380F82010202180F821107047F2
:1039D0000146D1F82C0C4A6A1043704770B5054671
:1039E000002406E0094850F82400A84200D102E073
:1039F000641C002CF6D000BF04B904E0702204A1BE
:103A000009A001F0ABFA204670BD00007062000012
:103A10005352435C447269766572735C66736C5F83
:103A20006C6364632E630000696E7374616E63651A
:103A3000203C2041525241595F53495A4528735FF7
:103A40006C63644261736573290000002DE9F843DB
:103A500005460C46164604B104E0C22256A15CA0FD
:103A600001F07CFA06B104E0C32253A15AA001F090
:103A700075FA207900F00F0000B904E0C4224EA1CD
:103A800058A001F06BFA207D00F0070000B904E0B7
:103A9000C52249A15AA001F061FA207E00F007007A
:103AA00000B904E0C62244A15FA001F057FA6A46BB
:103AB00031462046FFF7F8FE10B90420BDE8F88330
:103AC0002846FFF78BFF8046614931F81800FDF763
:103AD00075FD604951F8280000F06AFAA86900F401
:103AE0009837E08B94F821100843217F0E2202EAD8
:103AF00041010843074394F8200008B147F4807758
:103B0000AF611E20A8620120C5F8240C0020E861E6
:103B1000C5F8200CA0880121C1EB1010FC2101EA9E
:103B20008000A179491E4FF47F4202EA0121084337
:103B3000E179491E120202EA01410843217A491E35
:103B4000120202EA0161084328606089401EC0F346
:103B50000900217B491E4FF47C4202EA812108437F
:103B6000617B491E4FF47F0202EA01410843A17BB9
:103B7000491E120202EA016108436860208AE17B63
:103B8000491E4FF4F86202EA811108430099084384
:103B9000A860A07C38B1E07C401E00F07F0040F4BB
:103BA0008030E86001E00020E86060692861A06979
:103BB0006861002082E700005352435C44726976DA
:103BC0006572735C66736C5F6C6364632E63000084
:103BD000636F6E6669670000737263436C6F636B3B
:103BE0005F487A0028636F6E6669672D3E70706C5F
:103BF0002026203078465529203D3D2030550000B4
:103C000028636F6E6669672D3E75707065725061CE
:103C10006E656C41646472202620307830375529F7
:103C2000203D3D203055000028636F6E6669672D8A
:103C30003E6C6F77657250616E656C416464722092
:103C40002620307830375529203D3D203055000062
:103C5000746200007862000010B50B48FFF7B8FEF0
:103C6000044621460848FFF703FE04F0040010B1A3
:103C700001200649087000BF00BF00BFBFF34F8F8F
:103C800000BF00BF00BF10BD003008407000002022
:103C900000F01F02012191404209920002F1E0224E
:103CA000C2F800117047000010B5002807DA4A0773
:103CB000140E054A00F00F031B1FD45403E04A07FB
:103CC000130E024A135410BD18ED00E000E400E0AA
:103CD00010B501464FF04024A36A180E08B1CA6A15
:103CE000CA6210BD01228A404262704710B54FF08F
:103CF0004020FFF7EDFF044600214FF04020FFF782
:103D0000F1FF0448006820B1024821460268002003
:103D1000904710BD3006002010B54FF04020FFF74F
:103D2000D7FF044601214FF04020FFF7DBFF044896
:103D3000406820B10248214642680120904710BDEA
:103D40003006002010B54FF04020FFF7C1FF0446B9
:103D500002214FF04020FFF7C5FF0448806820B1E2
:103D60000248214682680220904710BD300600209C
:103D700010B54FF04020FFF7ABFF044603214FF092
:103D80004020FFF7AFFF0448C06820B10248214639
:103D9000C2680320904710BD3006002010B54FF0D8
:103DA0004020FFF795FF044604214FF04020FFF725
:103DB00099FF0448006920B10248214602690420A5
:103DC000904710BD3006002010B54FF04020FFF79F
:103DD0007FFF044605214FF04020FFF783FF044892
:103DE000406920B10248214642690520904710BD34
:103DF0003006002010B54FF04020FFF769FF044661
:103E000006214FF04020FFF76DFF0448806920B184
:103E10000248214682690620904710BD30060020E6
:103E200010B54FF04020FFF753FF044607214FF035
:103E30004020FFF757FF0448C06920B102482146DF
:103E4000C2690720904710BD300600200121814043
:103E5000024A030A42F8231070470000300600406F
:103E600001218140024A030A42F8231070470000F2
:103E70003006004001218140024A030A42F8231023
:103E800070470000200600404FF080600449086041
:103E900000BF0448406D00F020002028F9D1704791
:103EA000300600400000024010B504461A48844223
:103EB00018D20B21002000F031F80C21012000F075
:103EC0002DF80B21022000F029F80B21032000F02F
:103ED00025F80B21042000F021F80B21052000F02B
:103EE0001DF817E00D21002000F018F80C2101202A
:103EF00000F014F80B21022000F010F80D2103202F
:103F000000F00CF80B21042000F008F80B2105202C
:103F100000F004F810BD000000E1F50510B501F057
:103F20000F02024C44F8202010BD000000000240A7
:103F30002DE9F04105462E0CAFB2012000FA07F43E
:103F4000202F00D204E05C220DA113A001F006F89E
:103F5000032E08D31448846000BF13480068204033
:103F6000A042FAD00AE0114840F8264000BF0F48AE
:103F7000403850F826002040A042F8D0BDE8F0813B
:103F80005352435C447269766572735C66736C5F0E
:103F900072657365742E6300626974506F73203CA0
:103FA0002033327500000000000004404001004052
:103FB00010B50446204600F005F82046FFF7B8FF8C
:103FC00010BD00002DE9F04105462E0CAFB20120D6
:103FD00000FA07F4202F00D204E03B220DA113A029
:103FE00000F0BCFF032E08D31448446000BF134800
:103FF000006820400028FAD00AE0114840F8264026
:1040000000BF0F48203850F8260020400028F8D084
:10401000BDE8F0815352435C447269766572735C0B
:1040200066736C5F72657365742E630062697450A9
:104030006F73203C20333275000000000000044004
:104040002001004010B5024802490968884710BDA8
:1040500000500840580000202DE9F04304460E4669
:10406000DDE9075CC6F3013731466D4800680A2870
:1040700002D30120BDE8F083022F0FD14FF47070FE
:1040800000EA8310084304F54078DFF89491D9F8EA
:10409000009008EBC908C8F80400A6E0012F4FD132
:1040A000604800680A2801D30120E3E75D480078F2
:1040B00000F00F000143206800F0010000B9A5B92D
:1040C0001FFA82F804F58070DFF85891D9F8009053
:1040D00040F829801FFA82F804F50070DFF8449157
:1040E000D9F8009040F8298019E0102000EA051066
:1040F00001434D4800EA024804F58070DFF824913E
:10410000D9F8009040F82980474800EA024804F5B1
:104110000070DFF81091D9F8009040F8298004F57C
:104120004070DFF8FC80D8F8008000EBC8004160E8
:104130003C480068401CDFF8EC80C8F8000054E000
:10414000384800680A2801D3012093E735480078F1
:1041500000F00F004FF4707808EA831840EA080076
:104160000143206800F0010000B9A5B91FFA82F8E8
:1041700004F58070DFF8AC90D9F8009040F8298001
:104180001FFA82F804F50070DFF89890D9F80090D3
:1041900040F8298019E0102000EA05100143224868
:1041A00000EA024804F58070DFF87890D9F80090B2
:1041B00040F829801C4800EA024804F50070DFF846
:1041C0006490D9F8009040F8298004F54070DFF839
:1041D0005080D8F8008000EBC800416011480068AA
:1041E000401CDFF84080C8F80000104890F80080BC
:1041F000012000FA08F004F54078DFF82490D9F89F
:10420000009048F8390006480068CCF800000448DF
:104210000068401CDFF80880C8F80000002029E78B
:104220004C000020540000200000FFFF5000002040
:104230002DE9F0418046104806680F48F438D0F860
:10424000F00000EA06073546002400BF0CE005F048
:10425000010038B1094850F8240018B1074951F855
:10426000240080476D08641C0A2C01DA002DEED171
:1042700001480760BDE8F081F45008405006002076
:1042800010B5044604B104E0A22207A10DA000F07D
:1042900065FE0120207000206070A070E070207129
:1042A0006071A071E07110BD5352435C4472697635
:1042B0006572735C66736C5F736374696D65722E8F
:1042C00063000000636F6E666967000070B50546A5
:1042D0000126002406E00A4850F82400A84200D134
:1042E00002E0641CB442F6D300BFB44200D204E042
:1042F000612204A10AA000F031FE204670BD00003A
:104300007C6200005352435C447269766572735C50
:1043100066736C5F736374696D65722E6300000071
:10432000696E7374616E6365203C207363744172BF
:10433000726179436F756E74000000002DE9F041E1
:1043400005460C4604B104E0682234A13AA000F00E
:1043500005FE2846FFF7BAFF394931F81070380AD0
:10436000032805D20121B940364A42F8201005E061
:1043700001218A07D164B940334A516100BF284600
:10438000FFF7A4FF314951F820703846FFF710FEBF
:10439000A078782101EAC0006178062202EA410192
:1043A0000843217801F0010108432860E0781021DA
:1043B00001EA001061794FF4FF5202EA411108430B
:1043C00040F00800001D6860207870B920794FF433
:1043D000801101EA0050A179120402EA4151084318
:1043E00040F44020696808436860E079286500204F
:1043F000174908601749086017490860002604E05B
:104400000020164941F82600761C0A2EF8D31448DD
:10441000144908600020BDE8F08100005352435C5D
:10442000447269766572735C66736C5F73637469FA
:104430006D65722E63000000636F6E666967000031
:1044400080620000200200400000044084620000FE
:104450004C00002050000020540000205006002096
:10446000314200005800002010B500F5A06303EBB6
:10447000C1035B6801249440234300F5A06404EB6E
:10448000C104636010BD10B500F5A06353F831405E
:1044900001239340234300F5A06444F8313010BD5C
:1044A0002DE9F04F85B004460D4617469946DDF8D4
:1044B00038B005B104E0BD2264A16BA000F04EFD50
:1044C000BBF1000F00D004E0BE2260A169A000F0A3
:1044D00045FDB9F1000F00D004E0BF225BA168A048
:1044E00000F03CFD002004906068C0F34710401CC1
:1044F000BBFBF0FA65480068801C0A2803D901203C
:1045000005B0BDE8F08FA87808B90120F8E7206869
:1045100040F001002060012F03D1606840F01000DE
:10452000606027B9BAFBF9F0A0F1010803E04FEA97
:104530004900BAFBF0F8A87800FB08F06421B0FB52
:10454000F1F00490A878642802DB08F102000490DE
:1045500003A800210B464246CDE900104FF48051DC
:104560002046FFF779FD02A800210B46CDE9001097
:104570004FF480512046049AFFF76EFD0021039806
:10458000226802F0010202B931B9A2680123834016
:104590009BB21A43A26008E0A26801238340DFF8BF
:1045A000F0C00CEA03431A43A26000BF03990F98BE
:1045B00001606878012823D1206D2A78012191407B
:1045C0008843206557B929782046039AFFF75BFF97
:1045D00029782046029AFFF747FF34E029782046E1
:1045E000029AFFF741FF666D28784100032088405A
:1045F000864328784100012088400643666522E012
:10460000206D2A78012191400843206557B9297807
:104610002046039AFFF728FF29782046029AFFF7E1
:1046200032FF10E029782046029AFFF72CFF666DD2
:1046300028784100032088408643287841000120E3
:1046400088400643666500205AE700005352435CE9
:10465000447269766572735C66736C5F73637469C8
:104660006D65722E6300000070776D506172616D30
:1046700073000000737263436C6F636B5F487A0072
:1046800070776D467265715F487A00004C000020BB
:104690000000FFFF10B50848006800B105E040F2D7
:1046A000075206A10BA000F059FC034801680D4811
:1046B0000D4A1268904710BD5C0000205352435CC5
:1046C000447269766572735C66736C5F7364696665
:1046D0002E630000735F7364696648616E646C6585
:1046E0005B305D0000B009406000002006480068B3
:1046F00040F47000044908600448034980390860A8
:10470000382003490860704788ED00E00000000091
:104710002002004010B5044604B104E0D32209A1F0
:104720000EA000F01BFC4FF4E1302060002020714F
:1047300060710120A0710020E07120726072A0728F
:10474000E07210BD5352435C447269766572735CCB
:1047500066736C5F75736172742E63004E554C4CBA
:1047600020213D20636F6E66696700002DE9F041EE
:1047700004460D46174614B10DB107B104E093226B
:1047800033A139A000F0EAFB0CB105B117B9042040
:10479000BDE8F08101212046FEF70AFC06460EB175
:1047A0003046F5E73A462046296800F0F7F8064615
:1047B0000EB13046ECE7687AB8B104F56064206861
:1047C00040F001102060A06820F47060A060A06834
:1047D000A97A4FF4706202EA01210843A060A06840
:1047E00040F00100A060A4F56064287AB8B104F537
:1047F0006064206840F002102060A06820F47020FF
:10480000A060A068E97A4FF4702202EA01410843EF
:10481000A060A06840F00200A060A4F56064287960
:10482000302101EA00106979402202EA811108432F
:10483000A9790C2202EA81010843E9794FF4004288
:1048400002EAC1310843401C20600020A0E70000BC
:104850005352435C447269766572735C66736C5F35
:1048600075736172742E63002128284E554C4C20BC
:104870003D3D206261736529207C7C20284E554C8B
:104880004C203D3D20636F6E66696729207C7C204B
:104890002830203D3D20737263436C6F636B5F482B
:1048A0007A2929002DE9F04104460D4617460CB13E
:1048B00005B105E04FF4957229A12FA000F04EFB41
:1048C00004B115B90420BDE8F081D4F8000E00F061
:1048D000020008B90120F6E73EE000BFD4F8040E5C
:1048E00000F040000028F9D0A66806F4005030B16E
:1048F000A06840F40050A06041F24F60E3E706F486
:10490000804030B1A06840F48040A06041F2506027
:10491000D9E706F4004030B1A06840F40040A06040
:1049200041F24E60CFE7D4F8040E00F0020070B1FF
:10493000D4F8000E40F40030C4F8000ED4F8040E91
:1049400040F00200C4F8040E41F24D60BBE7D4F819
:10495000300E28706D1C7F1E002FBED10020B2E7E4
:104960005352435C447269766572735C66736C5F24
:1049700075736172742E63002128284E554C4C20AB
:104980003D3D206261736529207C7C20284E554C7A
:104990004C203D3D20646174612929002DE9FC5FB4
:1049A00006460C4617464FF0FF3001904FF00F0AB5
:1049B000834616B10CB107B104E0E7221DA123A084
:1049C00000F0CCFA0EB104B117B90420BDE8FC9F89
:1049D000554621E0681C6043B7FBF0F0A0F10108E8
:1049E000B8F5803F00D316E0681C08F10101484388
:1049F000B7FBF0F94C4502D2A9EB040001E0A4EBAF
:104A000009000090DDE90001884203D2009801907E
:104A1000AA46C34600BF6D1E042DDBD2BBF5803F06
:104A200002D341F25160D1E7C6F828A0C6F820B001
:104A30000020CBE75352435C447269766572735C25
:104A400066736C5F75736172742E63002128284E43
:104A5000554C4C203D3D206261736529207C7C20B3
:104A60002830203D3D2062617564726174655F424B
:104A7000707329207C7C202830203D3D2073726398
:104A8000436C6F636B5F487A2929000070B5044658
:104A90000D4616460CB105B105E04FF4867212A121
:104AA00017A000F05BFA04B105B970BDD4F8000E90
:104AB00000F0010000B9F8E70BE000BFD4F8040EE5
:104AC00000F020000028F9D02878C4F8200E6D1CD2
:104AD000761E002EF1D100BFD4F8040E00F01000B5
:104AE0000028F9D000BFE0E75352435C4472697676
:104AF0006572735C66736C5F75736172742E6300AC
:104B00002128284E554C4C203D3D2062617365297B
:104B1000207C7C20284E554C4C203D3D2064617407
:104B20006129290010B5034801680348034A126847
:104B3000904710BD6400002000E0004068000020A5
:104B4000002101600171017002214170002181701A
:104B50000522C27000220271704770B506460D46EC
:104B600000221146304600F0BDF904460CB1204643
:104B700070BD0F221621304600F0B4F904460CB186
:104B80002046F5E74FF480726C21304600F0AAF918
:104B900004460CB12046EBE74FF480726F2130469B
:104BA00000F0A0F904460CB12046E1E7304600F0E1
:104BB00087F904460CB12046DAE74AF25F42142135
:104BC000304600F08FF904460CB12046D0E70322AE
:104BD0000C21304600F086F904460CB12046C7E7A8
:104BE00003220E21304600F07DF904460CB1204628
:104BF000BEE70F221221304600F074F904460CB1D2
:104C00002046B5E701220A21304600F06BF9044640
:104C10000CB12046ACE741F205421521304600F0C8
:104C200061F904460CB12046A2E750221821304613
:104C300000F058F904460CB1204699E702221921E8
:104C4000304600F04FF904460CB1204690E70C22A4
:104C50001A21304600F046F904460CB1204687E799
:104C600020221B21304600F03DF904460CB12046BD
:104C70007EE740222121304600F034F904460CB191
:104C8000204675E714222E21304600F02BF9044609
:104C90000CB120466CE714222F21304600F022F997
:104CA00004460CB1204663E705222C21304600F073
:104CB00019F904460CB120465AE705222D21304649
:104CC00000F010F904460CB1204651E700223D21C6
:104CD000304600F007F904460CB1204648E7392277
:104CE0001146304600F0FEF804460CB120463FE77E
:104CF00039223A21304600F0F5F804460CB120463E
:104D000036E703224321304600F0ECF804460CB1AC
:104D100020462DE7FF225A21304600F0E3F80446F2
:104D20000CB1204624E701226821304600F0DAF871
:104D300004460CB120461BE701226221304600F0F8
:104D4000D1F804460CB1204612E72978304600F02D
:104D50008AF804460CB120460AE76978304600F02C
:104D600088F804460CB1204602E7A91C304600F042
:104D70004BF804460CB12046FAE60020F8E62DE98F
:104D8000F8430746884614461D466A46414638465B
:104D900000F014F8064616B13046BDE8F883BDF8B9
:104DA0000000A0430090BDF8000028430090BDF82B
:104DB00000204146384600F095F8EEE7F0B587B0A0
:104DC00005460E4614460020208001901A20ADF8BA
:104DD000080001208DF80A0003960490CDF814D045
:104DE0000220069001A92868FEF790FA074617B13D
:104DF000012007B0F0BD9DF801009DF8001040EAC9
:104E0000012020800020F4E770B506460D46002200
:104E10001621304600F066F804460CB1204670BDFD
:104E20006878297840EA812082B21521304600F066
:104E300059F804460CB12046F1E7AB780C22192151
:104E40003046FFF79CFF04460CB12046E7E741F2ED
:104E500007021621304600F045F804460CB1204602
:104E6000DDE70020DBE7024609B1012070470020A2
:104E7000FCE770B505460C46234603221921284657
:104E8000FFF77DFF70BD2DE9F04107460D46164640
:104E90002B463F2239213846FFF771FF044614B1F3
:104EA0002046BDE8F08146F08003BF223A21384613
:104EB000FFF765FF04460CB12046F2E70020F0E75B
:104EC00038B5054600BF6A4670212846FFF776FFD1
:104ED00004462CB9BDF8000000F001000028F2D112
:104EE000204638BDF0B587B005460E4614468DF80D
:104EF0000060200A8DF80100E0B28DF80200002069
:104F000001901A20ADF8080000208DF80A000390E7
:104F10000490CDF814D00320069001A92868FEF76C
:104F2000F5F9074617B9002007B0F0BD0120FBE7EF
:104F30007CB5044600201D46164600290BD0491EAC
:104F4000CDE90041044B6A462946304600F0FAF8A4
:104F5000009A002111707CBD7358000004460D4674
:104F6000164633462A46214602A0FDF7A5FA00BFA1
:104F700000BEFDE7415353455254204552524F5213
:104F8000202220257320223A2066696C6520222584
:104F90007322204C696E652022256422200A0000BD
:104FA00002E008C8121F08C1002AFAD170477047F2
:104FB000002001E001C1121F002AFBD17047000050
:104FC0002DE9FF5F82B00021DDE90430020DDDF83C
:104FD00040B0034318D044F61050A2F2FF324243CF
:104FE0001514119801281FD0A5EB0B00401C5FEA97
:104FF000000A4FF000064E4FDFF83891B046504699
:1050000015D5CAF1000413E0119801244AA3012820
:1050100001D16FEA0B010298119AC0E90031C0E991
:10502000024206B0BDE8F09FCBF10000DFE7044686
:105030000021404A491842EB0450CDE9001012E02B
:10504000E00707D032463B4640464946FBF716FC90
:105050008046894632463B4610461946FBF70EFC11
:1050600006460F466410002CEAD1DDE90401DDE9B3
:105070000023BAF1000F06DAFBF700FC42464B466C
:10508000FBF7FCFB05E0FBF76BFC42464B46FBF7EE
:1050900067FC04460E460022284BFBF7FBFA03D8B8
:1050A0004FF0FF30014607E00022254B20463146F5
:1050B000FBF73DFBFBF7C3FC102409E0002C0ADBE7
:1050C0000A220023FBF79CFA039B30321A55641E18
:1050D00050EA0102F2D1641C039AC4F11103144492
:1050E000119A012A03D0012208430DD10AE0084396
:1050F00004D000204FF0110B119072E7A3EB0B05C9
:105100006D1E0DE05B4504DD4FF0000205F1010569
:1051100004E003DA4FF00002A5F10105002AECD00B
:1051200002981199C0E90231C0E9004579E7000011
:10513000000014400000F03F300000000000F04389
:105140000000E03F2DE9FF4F95B09B46894606469B
:1051500000250FE2252877D100242746F84A0121AF
:10516000059400E0044316F8013F203B01FA03F0E8
:105170001042F7D130782A2811D06FF02F03307801
:10518000A0F13002092A16D8059A44F0020402EB75
:10519000820203EB42021044761C0590EFE759F8B7
:1051A000042B0592002A03DA504244F4005405907F
:1051B00044F00204761C30782E2816D116F8010F20
:1051C00044F004042A280DD06FF02F023078A0F1AB
:1051D0003003092B09D807EB870302EB4303C718F9
:1051E000761CF3E759F8047B761C30786C280FD0D6
:1051F00006DC4C2817D068280DD06A2814D104E0AA
:10520000742810D07A280FD10DE044F400140AE07D
:1052100044F4801401E044F440147278824202D1D4
:1052200004F58014761C761C307866280BD013DCCD
:10523000582877D009DC002875D04528F6D04628B4
:10524000F4D047281AD19DE118E0632835D06428AE
:1052500079D0652812D195E1702873D008DC6728D1
:10526000F1D069286FD06E280DD06F2806D1B5E037
:1052700073282CD0752875D0782874D05A46179981
:1052800090476D1C75E1C4F30250022809D0032831
:105290000DD0D9F8001004280DD00D6009F10409D3
:1052A00067E1D9F80010EA17C1E90052F6E7D9F82A
:1052B00000100D80F2E70D70F0E719F8041B8DF86F
:1052C000001000208DF80100EA46012003E059F8A3
:1052D00004AB4FF0FF3061074FF0000102D40DE046
:1052E00008F101018846B9420FDA8045F8DB1AF867
:1052F00008100029F4D108E008F101018846814234
:10530000FADB1AF808100029F6D105985B46A0EBE5
:10531000080721463846179A00F094FA284400EB13
:10532000080507E04DE029E10DE01AF8010B5A46A7
:1053300017999047B8F10108F7D25B4621463846E5
:10534000179A13E142E00A220092C4F302524FF08E
:10535000000A022A08D059F804CB032A4FEAEC715C
:105360000AD00DE029E02AE009F1070121F0070247
:10537000F2E802C1914609E00FFA8CFC4FEAEC71A9
:10538000042A03D14FFA8CFC4FEAEC71002907DAAA
:105390000A460021DCF1000C61EB02012D2202E043
:1053A000220504D52B228DF80420012203E0E20718
:1053B00001D02022F7E7904659E00A2102E01022AE
:1053C0000DE010214FF0000A00910BE010224FF089
:1053D000000A44F004040827009203E008224FF07A
:1053E000000A0092C4F30252022A05D059F804CBF5
:1053F0000021032A08D009E009F1070121F0070282
:10540000F2E802C1914605E01FFA8CFC042A01D1A2
:105410000CF0FF0C4FF00008220728D5702806D0AA
:10542000009B83F0100353EA0A0305D00EE04022EC
:105430008DF80420012208E05CEA010206D0302247
:105440008DF804208DF8050002229046009B83F021
:10545000080353EA0A030AD15CEA010201D1620798
:1054600005D530228DF804204FF001087F1E582802
:1054700004D034A003900EA802900DE036A0F9E706
:1054800053466046009AFBF7BBF884460398825C5B
:105490000298401E029002705CEA0100F0D102986E
:1054A00006A9081A00F1200A600702D524F4803406
:1054B00000E00127574502DDA7EB0A0000E00020CD
:1054C00000EB0A01009005984144401A0590E00362
:1054D00006D45B462146179A059800F0B3F90544B7
:1054E000002706E001A85A46C05D179990476D1C39
:1054F0007F1C4745F6DBE0030CD55B462146179A37
:10550000059800F09FF9054404E030205A461799A9
:1055100090476D1C0099481E00900029F5DC08E0BA
:10552000029802995A460078491C029117999047AF
:105530006D1CBAF10001AAF1010AF1DC65E100007D
:105540000928010030313233343536373839616259
:10555000636465660000000030313233343536371D
:1055600038394142434445460000000000F058F9F4
:105570000544761C307800287FF4ECAD19B028463D
:10558000BDE8F08F620700D4062709F1070222F078
:10559000070CFCE80223E14603F000485FEA080C30
:1055A00002D00FF2702C0DE05FEA045C02D50FF21E
:1055B000682C07E05FEAC47C02D00FF2602C01E0A7
:1055C000AFF2700C4FF0FF3823F00043CDF850C01D
:1055D00065280CD006DC452809D046281DD0472870
:1055E0003DD13DE0662818D067287ED138E0002103
:1055F000112F01DB112000E0781CCDE9000106A984
:105600000EA8FFF7DDFCDDE90F010E9A03910021E2
:10561000009207F1010A04914DE04FF0004000971D
:10562000CDE9011006A90EA8FFF7CAFCDDE90F02BB
:1056300003920E9B11990022DDF80CA000930492B6
:1056400011B9791C00EB010AB7EB0A0004D4C0F1D0
:10565000FF3007F1010A0490AAEB0700019044E033
:10566000012F00DA01270021112F01DD112000E0B8
:105670003846CDE9000106A90EA8FFF7A1FCDDE937
:105680000F010E9A0391002104910092BA4621075E
:105690000CD40399514500DA8A46BAF1010F05DDB1
:1056A000009AAAF10101515C302908D0B84202DA0F
:1056B00010F1040F06DA0121CDE9011015E0AAF17D
:1056C0000101E9E7002805DC049901440491AAEBF3
:1056D000000102E0411C514500DD8A460499401A50
:1056E000401C01904FF000400290200704D4019824
:1056F000504501DBCDF8048000208DF84F00029862
:105700000DF14F07B0F1004F25D02B200E900298DD
:105710004FF0020800280CDA404202902D200E9033
:1057200007E00A210298FAF7CDFF3031029007F81E
:10573000011DB8F10001A8F10108F2DC029800286F
:10574000EFD1791E0E980870307800F0200040F0FC
:10575000450007F8020D12A8C01B00F107081498B5
:10576000007800B1012000EB0A01019801EBE07123
:1057700005984144401A401E0590E00306D45B465C
:105780002146179A059800F05DF8054414980078B2
:1057900018B15A46179990476D1CE00324D55B4613
:1057A0002146179A059800F04DF805441CE004982E
:1057B000002807DBDDE90301884203DD0098405C37
:1057C000179901E0179930205A469047049805F13F
:1057D0000105401C04900198401E019004D12E2028
:1057E0005A46179990476D1CBAF10001AAF1010AB7
:1057F000DDDC05E017F8010B5A46179990476D1C40
:10580000B8F10001A8F10108F4DC5B462146179AC3
:105810000598ABE62D0000002B00000020000000E2
:105820002DE9F041044600251E461746880404D49D
:1058300005E039462020B0476D1C641EF9D5284686
:10584000BDE8F0812DE9F041044600251E46904652
:10585000C80301D5302700E02027880404D505E0DF
:1058600041463846B0476D1C641EF9D52846BDE850
:10587000F0814A68002A06D00A68531C0B60107039
:105880004868401E4860704730B50246CB0801F0BA
:105890000704D05C0125A540284030BD70B50B46FB
:1058A000D90803F007042AB1455C0126A640354318
:1058B000455404E0455C0126A640B543455470BDFF
:1058C0002DE9F04781460F4690461C46002617E01A
:1058D000002510E032B229B2204600F07FF882465F
:1058E00008EB060002B2781901B25346484600F0B0
:1058F000C9F9681C85B22089A842EBDC701C86B20D
:105900006089B042E4DCBDE8F0872DE9F04107464C
:105910000D4690461C46069E202C02DA2846BDE81D
:10592000F081A4F12000C4B224B930680089284471
:1059300000B2F4E756F82430424629463846FFF7CD
:10594000BFFF56F824000089284405B22846E6E740
:105950002DE9F84782460E4614461F46DDF824809E
:10596000002516F8059010E04B463A462146504671
:10597000CDF80080FFF7C9FF044698F88D01204458
:1059800004B2681CC5B216F80590B9F1000F01D039
:10599000402DE9DB601C00B2BDE8F88700B5014688
:1059A0000B4A4868904206D14FF0204048601046AC
:1059B000084A106105E0064848604FF02040054A5B
:1059C00010610020044A107000F00CFA00BD0000C5
:1059D00000F807A000300840700000202DE9F04FCB
:1059E00004460D4617464FF00008C1462089A842DC
:1059F00073DD6089B842FBDD002D6EDB002FFCDB20
:105A0000207807286AD2DFE800F0041D41575E6A5B
:105A100081002089C01DC61007FB06F000EBE508D9
:105A200005F007010120884000F0FF0B606810F8C6
:105A3000080000EA0B0010B14FF0FF3901E04FF011
:105A400000096EE005EB45012089784300EB40003A
:105A500001EB000A51460AF1010A6068FFF714FFE2
:105A600008B149F0010951460AF1010A6068FFF7DF
:105A70000BFF08B149F0020951460AF1010A6068BA
:105A8000FFF702FF08B149F004094AE02089401CF1
:105A9000461007FB06F000EB650805F0010028B191
:105AA000606810F8080000F00F0904E0606810F862
:105AB00008004FEA101934E0268907FB0658606891
:105AC00010F808902DE02089460007FB06F000EB57
:105AD0004508606830F8089023E023E020E0208942
:105AE00000EB400605EB450007FB0608606810F870
:105AF000089008F101006168085C49EA002908F192
:105B000002006168085C49EA00490AE020898600D1
:105B100007FB06F000EB8508606850F8089000E08D
:105B200000BF00BF4846BDE8F08F70B504460A4686
:105B300000210025635C491C10E0202B0EDB802B2C
:105B40000CDAA3F1200052F82000008992F88D6150
:105B50003044284405B2635C481CC1B20BB14029F3
:105B6000EBDB92F88D01281A00B270BD30B5039CB2
:105B7000416002814381047030BD10B500220021D4
:105B80000378072B5DD2DFE803F0045C13222F3F7C
:105B90004E000389DB1DDB10448903FB04F2002166
:105BA00003E0002344686354491C9142F9D349E05F
:105BB00003895B1C5B10448903FB04F2002103E0B2
:105BC000002344686354491C9142F9D33AE00389A5
:105BD000448903FB04F2002103E00023446863547A
:105BE000491C9142F9D32DE003895B00448903FBF2
:105BF00004F2002104E00023446824F81130491C19
:105C0000B1EB520FF7D31DE0038903EB4303448943
:105C100003FB04F2002103E0002344686354491CA1
:105C20009142F9D30EE003899B00448903FB04F2FF
:105C3000002103E0002344686354491C9142F9D3D6
:105C400000E000BF00BF10BD08B540F21D10FBF71B
:105C50008FFC012211462C20FCF7AEF9FBF740F82F
:105C6000FAF788FF04204FF488734FF4F072034969
:105C700000900348FFF77AFF08BD000000F807A076
:105C8000380800202DE9FF4704460E46904620893B
:105C9000B04275DD60894045FBDD002E70DBB8F158
:105CA000000FFBDB207807286BD2DFE800F004212F
:105CB000426B727C8C002089C01DC71008FB07F066
:105CC00000EBE60506F007010120884000F0FF091F
:105CD000039830B16068405D40EA0900616848554A
:105CE00005E06068405D20EA09006168485575E09C
:105CF00006EB4600218901EB410108FB010A039BE9
:105D000003F0010251460AF1010A6068FFF7C6FD7F
:105D1000039B03F0020251460AF1010A6068FFF793
:105D2000BDFD039901F0040251466068FFF7B6FD1E
:105D300054E02089401C471008FB07F000EB660583
:105D400006F0010070B16068405D20F00F006168EE
:105D500048556068405D039901F00F010843616890
:105D600048550CE06068405D20F0F00061684855DF
